{
  "_format": "hh-sol-artifact-1",
  "contractName": "FileOriginValidator",
  "sourceName": "contracts/fileOriginValidator.sol",
  "abi": [
    {
      "anonymous": false,
      "inputs": [
        {
          "indexed": false,
          "internalType": "address",
          "name": "_addedBy",
          "type": "address"
        },
        {
          "indexed": false,
          "internalType": "bytes32",
          "name": "_fileHash",
          "type": "bytes32"
        }
      ],
      "name": "AddFile",
      "type": "event"
    },
    {
      "inputs": [
        {
          "internalType": "bytes32",
          "name": "_fileHash",
          "type": "bytes32"
        }
      ],
      "name": "addFile",
      "outputs": [
        {
          "internalType": "bool",
          "name": "",
          "type": "bool"
        }
      ],
      "stateMutability": "nonpayable",
      "type": "function"
    },
    {
      "inputs": [
        {
          "internalType": "bytes32",
          "name": "_fileHash",
          "type": "bytes32"
        }
      ],
      "name": "getFileOrigin",
      "outputs": [
        {
          "internalType": "address",
          "name": "",
          "type": "address"
        }
      ],
      "stateMutability": "view",
      "type": "function"
    },
    {
      "inputs": [
        {
          "internalType": "address",
          "name": "_originAddress",
          "type": "address"
        },
        {
          "internalType": "bytes32",
          "name": "_fileHash",
          "type": "bytes32"
        }
      ],
      "name": "validateFileOrigin",
      "outputs": [
        {
          "internalType": "bool",
          "name": "",
          "type": "bool"
        }
      ],
      "stateMutability": "view",
      "type": "function"
    }
  ],
  "bytecode": "0x608060405234801561001057600080fd5b506106f2806100206000396000f3fe608060405234801561001057600080fd5b50600436106100415760003560e01c806304912a3e146100465780636b31827014610076578063e82938b3146100a6575b600080fd5b610060600480360381019061005b919061046c565b6100d6565b60405161006d9190610588565b60405180910390f35b610090600480360381019061008b91906104a8565b6101f3565b60405161009d9190610588565b60405180910390f35b6100c060048036038101906100bb91906104a8565b610354565b6040516100cd9190610544565b60405180910390f35b6000806000808481526020019081526020016000206040518060600160405290816000820160009054906101000a900473ffffffffffffffffffffffffffffffffffffffff1673ffffffffffffffffffffffffffffffffffffffff1673ffffffffffffffffffffffffffffffffffffffff168152602001600182015481526020016002820160009054906101000a900460ff161515151581525050905080604001516101b7576040517f08c379a00000000000000000000000000000000000000000000000000000000081526004016101ae906105a3565b60405180910390fd5b806000015173ffffffffffffffffffffffffffffffffffffffff168473ffffffffffffffffffffffffffffffffffffffff161491505092915050565b600080600083815260200190815260200160002060020160009054906101000a900460ff1615610258576040517f08c379a000000000000000000000000000000000000000000000000000000000815260040161024f906105c3565b60405180910390fd5b60405180606001604052803373ffffffffffffffffffffffffffffffffffffffff1681526020014281526020016001151581525060008084815260200190815260200160002060008201518160000160006101000a81548173ffffffffffffffffffffffffffffffffffffffff021916908373ffffffffffffffffffffffffffffffffffffffff1602179055506020820151816001015560408201518160020160006101000a81548160ff0219169083151502179055509050507fecf604f38f3bfed60fb424875247a84666e225c079a95f95e6354e779b28021b338360405161034392919061055f565b60405180910390a160019050919050565b6000806000808481526020019081526020016000206040518060600160405290816000820160009054906101000a900473ffffffffffffffffffffffffffffffffffffffff1673ffffffffffffffffffffffffffffffffffffffff1673ffffffffffffffffffffffffffffffffffffffff168152602001600182015481526020016002820160009054906101000a900460ff16151515158152505090508060400151610435576040517f08c379a000000000000000000000000000000000000000000000000000000000815260040161042c906105a3565b60405180910390fd5b8060000151915050919050565b6000813590506104518161068e565b92915050565b600081359050610466816106a5565b92915050565b6000806040838503121561047f57600080fd5b600061048d85828601610442565b925050602061049e85828601610457565b9150509250929050565b6000602082840312156104ba57600080fd5b60006104c884828501610457565b91505092915050565b6104da816105f4565b82525050565b6104e981610606565b82525050565b6104f881610612565b82525050565b600061050b6012836105e3565b91506105168261063c565b602082019050919050565b600061052e6013836105e3565b915061053982610665565b602082019050919050565b600060208201905061055960008301846104d1565b92915050565b600060408201905061057460008301856104d1565b61058160208301846104ef565b9392505050565b600060208201905061059d60008301846104e0565b92915050565b600060208201905081810360008301526105bc816104fe565b9050919050565b600060208201905081810360008301526105dc81610521565b9050919050565b600082825260208201905092915050565b60006105ff8261061c565b9050919050565b60008115159050919050565b6000819050919050565b600073ffffffffffffffffffffffffffffffffffffffff82169050919050565b7f46696c6520646f65736e74206578697374730000000000000000000000000000600082015250565b7f46696c6520616c72656164792065786973747300000000000000000000000000600082015250565b610697816105f4565b81146106a257600080fd5b50565b6106ae81610612565b81146106b957600080fd5b5056fea26469706673582212204a8e6be1aae4932942b448e880ef2a41af78b923081fe97674c31d2b714a494764736f6c63430008040033",
  "linkReferences": {},
  "deployedLinkReferences": {}
}